:020000040000FA
:10000000D04D00208D020000B5020000BD030000AD
:10001000B9020000BB020000BD02000000000000A9
:10002000000000000000000000000000BF0200000F
:10003000C10200000000000007030000C519000015
:10004000C7020000C7020000C7020000C70200008C
:10005000C7020000C7020000C7020000C70200007C
:10006000C7020000C7020000C7020000C70200006C
:10007000C7020000C7020000C7020000C70200005C
:10008000C702000055110000C7020000C7020000AF
:10009000C7020000C7020000C7020000C70200003C
:1000A000C7020000C7020000C7020000C70200002C
:1000B000C7020000C7020000C7020000C70200001C
:1000C000611B0000C7020000C7020000C702000059
:1000D000C7020000C7020000C7020000C7020000FC
:1000E000C7020000C7020000C7020000C7020000EC
:1000F000C7020000C7020000C7020000C7020000DC
:10010000C7020000C7020000C7020000C7020000CB
:10011000C7020000C7020000C7020000C7020000BB
:10012000C7020000C7020000C7020000C7020000AB
:10013000C7020000C7020000C7020000C70200009B
:10014000C7020000C7020000C7020000C70200008B
:10015000C7020000C7020000C7020000C70200007B
:10016000C7020000C7020000C7020000C70200006B
:10017000C7020000C7020000C7020000C70200005B
:10018000C7020000C7020000C7020000C70200004B
:10019000C7020000C7020000C7020000C70200003B
:1001A000C7020000C7020000C7020000C70200002B
:1001B000C7020000C7020000C7020000C70200001B
:1001C000C7020000C7020000C7020000C70200000B
:1001D000C7020000C7020000C7020000C7020000FB
:1001E000C7020000C7020000C7020000AD1B0000EC
:1001F000C7020000C7020000C7020000C7020000DB
:10020000C7020000C7020000C7020000C7020000CA
:10021000C7020000C7020000C7020000C7020000BA
:10022000C7020000C7020000C7020000C7020000AA
:10023000C7020000C7020000C7020000C70200009A
:10024000C7020000C7020000C7020000C70200008A
:10025000C7020000C7020000C7020000C70200007A
:10026000C7020000C7020000C7020000C70200006A
:10027000C7020000C7020000DFF80CD000F068FBE6
:1002800000480047AD2E0000D04D00200E484FF032
:10029000590101604FF0160101604FF088010160C3
:1002A0000A4A45F6A52111600021016008488047EF
:1002B00008480047FEE7FEE7FEE7FEE7FEE7FEE749
:1002C000FEE7FEE7FEE7FEE70001004024000040F5
:1002D000411A000079020000EFF3108072B67047F7
:1002E00080F3108870473A4A1368012B04D04FF00E
:1002F00001031360374A1060374A116037484FF0E6
:10030000805101607047EFF3108272B63048016887
:1003100021B34FF0000101602E48016891B1EFF365
:1003200009811EF0100F08BF21ED108B21E9F00F9D
:100330004FF000041EF0100F08BF012441F8044DD7
:100340000068016024490968096808C9B1E8F00F2C
:10035000002B18BFB1EC108B81F3098882F3108851
:100360004EF0100E002B18BF2EF0100E4EF0040EA3
:10037000704719490860EFF3148222F0040282F3F7
:10038000148814494FF00000086011494FF0010033
:10039000086013484FF47F01D0F8002041EA0201C1
:1003A00001600E484FF0805101600E4800680068FF
:1003B00000BF80F3088862B6704700BFEFF3098082
:1003C00000B502F06BFF5DF804EB4EF0040E7047D1
:1003D000DC020020D4020020D802002004ED00E05E
:1003E00020ED00E008ED00E02DE9F05F054600207B
:1003F00092469B4688460646814640241DE0284694
:1004000041464746224600F022F8B0EB0A00524629
:100410005B4671EB0B0110D310461946224600F0E3
:10042000E9F92D1A67EB01084F4622460120002109
:1004300000F0E0F917EB00094E41201EA4F1010481
:10044000DDDC484631462A464346BDE8F09F202A77
:1004500004DB203A21FA02F00021704721FA02F36E
:10046000D040C2F12002914008431946704740EA4B
:1004700001039B0703D009E008C9121F08C0042A22
:10048000FAD203E011F8013B00F8013B521EF9D209
:1004900070472DE9FE4F074681EA0300C00F0E4664
:1004A000019021F0004123F00044B81AA14105D287
:1004B0003846314617461E460B46024623F000409A
:1004C000104304D13846314603B0BDE8F08F350DF6
:1004D000C5F30A00C3F30A510290401A0090402865
:1004E00067DAC3F3130040F4801B0198924620B1F1
:1004F0000023D2EB030A63EB0B0B00985946C0F1C3
:100500004002504600F076F980460C465046594667
:10051000009A00F07EF9C0197141EF1785EA115376
:100520003B433FD0019A4AB3009A012A11DC0022D2
:10053000801A61EB05514FF0004303EA0555CDE900
:100540000025801841F580114246234600F080F9CD
:10055000BAE72E050025401B61EB0601401941F565
:100560008012001852412818A6F5001343EB02012F
:1005700040EAD47018EB0808644113E064084FEABD
:1005800038084FF0000244EAC0744FEA0553801A5D
:1005900061EB0301801841F5801149084FEA3000F2
:1005A000801859414246234603B0BDE8F04F00F0A1
:1005B00042B90198012240000023D0EB020263EB14
:1005C000E07301984FEAE074381A66EB0401EBE738
:1005D00083F000435DE781F000415AE72DE9FE4FCB
:1005E00081EA030421F0004504F0004423F00041B7
:1005F0004FF0000A009450EA050302D052EA0103CA
:1006000004D10020014603B0BDE8F08FC1F30A53C6
:10061000C5F30A542344A3F2F3330193A0FB02B3BE
:10062000C5F3130545F4801CC1F3130141F4801890
:100630000CFB023300FB083E810A930A41EA8C510D
:1006400043EA8853A1FB03474FEA9C2505FB03734C
:100650004FEA982601FB06373D05260545EA143585
:10066000BBEB06016EEB0503850E920E45EA8C1579
:1006700042EA8812A5FB0206261E67EB00070C0D56
:1006800044EA0334A61947EB1350C1F313044FF0A7
:1006900000031946E5FB02014FEA033545EA14550C
:1006A000019B4FEA0432009CA3F10C03CDE900A4A6
:1006B00045EA060502932B4600F0CAF8A3E72DE9A8
:1006C000F04D81EA030404F0004B21F0004714468A
:1006D0004FF0000A23F0004150EA070220D054EA0C
:1006E00001021DD0C1F30A550246C1F31300C7F33E
:1006F0000A56C7F3130340F4801143F48013A6EBAA
:100700000508101BD64608F2FD3873EB010002D332
:1007100008F1010801E092185B41B8F1000F03DA1B
:1007200000200146BDE8F08D00204FF480150646FC
:1007300007460EE0B2EB040C73EB010C04D3121B62
:10074000064363EB01032F436D084FEA3000921814
:100750005B4150EA050CEDD152EA030012D082EA67
:10076000040083EA0105284303D100224FF000432F
:1007700008E0101B8B4102D20122002302E06FF03F
:10078000010253101AEB060047EB085110EB0A0068
:1007900041EB0B01BDE8F04D00F04DB800F0004218
:1007A00030F000400DD0C10D01F5607142EA0151F9
:1007B0000022C0F31600520742EAD002400711435C
:1007C000704700200146704730B50B4601460020B7
:1007D0002022012409E021FA02F59D4205D303FA03
:1007E00002F5491B04FA02F52844151EA2F1010284
:1007F000F1DC30BD202A04DB203A00FA02F10020AF
:1008000070479140C2F1200320FA03F3194390404E
:100810007047202A06DBCB17203A41FA02F043EA60
:10082000E07306E041FA02F3D040C2F120029140A9
:1008300008431946704710B5002B08DA401C41F1F7
:10084000000192185B411A4301D120F0010010BD54
:100850002DE9FF4D934611B1B1FA81F202E0B0FAF1
:1008600080F220329246FFF7C5FF039A074688467A
:1008700040EA0B0011435B46084304D13846414629
:1008800004B0BDE8F08D114653EA020016D0CAF15B
:1008900040025846FFF7DBFD04460D464FF00106C7
:1008A000584652460399FFF7A5FF084300D100269A
:1008B000344345EAE675274345EA08080E984FF0A9
:1008C0000005A0EB0A014FEAD7200A314FEA47534F
:1008D0002A4640EA48504FEAD82402D50020014673
:1008E000CEE7281844EB0151DDE90C45001904B0AE
:1008F0006941BDE8F04D9EE7C1F30A52C1F313010F
:1009000040F2FF3341F480119A4202DA002001469E
:10091000704740F233439A42A2F2334202DC524221
:10092000FFF795BDFFF766BF30B5002904DB4FF038
:100930000044404264EB0101002B04DB4FF0004413
:10094000524264EB0303994208BF904230BD00005D
:10095000064C074D06E0E06840F0010394E807000C
:1009600098471034AC42F6D3FFF78AFC984D00004C
:10097000B84D000070B501EB020410F8015B15F0F2
:10098000070301D110F8013B2A1106D110F8012B01
:1009900003E010F8016B01F8016B5B1EF9D12B0726
:1009A00005D40023521E0FD401F8013BFAE710F8DA
:1009B000013B02F10202A1EB030303E013F8015B28
:1009C00001F8015B521EF9D5A142D6D3002070BDBB
:1009D00010B504214EF20F6000F072FE00214EF2BD
:1009E000186000F06DFE002144F2B63000F068FEA1
:1009F00000214FF4874000F08FFE002144F2813047
:100A000000F08AFE002144F2823000F085FE0021D1
:100A100044F2833000F080FE002144F2843000F084
:100A20007BFE002144F2853000F076FE002144F286
:100A3000863000F071FE002144F2873000F06CFE39
:100A4000002144F2883000F067FE002144F2893032
:100A500000F062FE002144F28A3000F05DFE0021C9
:100A600044F28B3000F058FE002144F28C3000F04C
:100A700053FE002144F28D3000F04EFE002144F27E
:100A8000913000F049FE002144F2923000F044FE23
:100A9000002144F2933000F03FFE002144F29430F4
:100AA00000F03AFE002144F2953000F035FE0021BE
:100AB00044F2963000F030FE00214EF2146000F057
:100AC000FFFD00214EF2156000F0FAFD00214EF20C
:100AD000166000F0F5FDA7214EF2116000F0F0FD68
:100AE000A7214EF2126000F0EBFDA7214EF2136039
:100AF00000F0E6FD40F688614EF2106000F0E0FD87
:100B000000214EF2017000F0DBFD40F2FF114EF2C9
:100B10000E6000F0D5FD00214FF4674000F0AAFD03
:100B2000714944F2AC3000F0F7FD172144F2AB30CC
:100B300000F0F2FD6C4944F2AA3000F0EDFD1721FF
:100B400044F2A93000F0E8FD674944F2AE3000F00D
:100B5000E3FD172144F2AD3000F0DEFD08214EF236
:100B6000027000F087FD40F25B114EF20C6000F065
:100B7000A7FD20214EF20A5000F0CEFD00214EF2DA
:100B80000B5000F0C9FD594944F2AC3000F0C4FDEF
:100B9000022144F2AB3000F0BFFD534944F2AA30C9
:100BA00000F0BAFD172144F2A93000F0B5FD4E491E
:100BB00044F2AE3000F0B0FD172144F2AD3000F049
:100BC000ABFD08214EF2027000F054FD40F25B11C3
:100BD0004EF20C6000F074FD20214EF20A5000F03D
:100BE0009BFD00214EF20B5000F096FD10214EF2BD
:100BF000037000F091FD04214FF4674000F03AFDCE
:100C00003B4944F2B33000F087FD3A4944F2813069
:100C100000F082FD374944F2833000F07DFD354914
:100C200044F2853000F078FD334944F2883000F01A
:100C300073FD314944F28A3000F06EFD2E4944F2D2
:100C40008C3000F069FD04214EF20F6000F038FD99
:100C50002A494FF4874000F05FFD284944F2823072
:100C600000F05AFD254944F2843000F055FD6FF044
:100C70007F0144F2873000F04FFD6FF07F0144F2B6
:100C8000893000F049FD6FF07F0144F28B3000F0B5
:100C900043FD1B4944F2913000F03EFD184944F2F7
:100CA000933000F039FD164944F2953000F034FDE0
:100CB0001C214EF2146000F003FD1C214EF2156061
:100CC00000F0FEFC1C214EF2166000F0F9FC40F62C
:100CD000C8014EF2106000F0F3FC0A214EF21160E0
:100CE00000F0EEFC10BD000061BE7B00D6B9C00074
:100CF00074310D00A3B0F8FF60EEFFFF1FD789FF2E
:100D00004C49EBFF10B5012208210B4800F055FAC1
:100D100001220421084800F050FA01200749086028
:100D20004FF000004FF04021C1F848084FF47A70AE
:100D300000F0D2F910BD0000404000404C48004097
:100D400010B50122D102154800F037FA01201449EC
:100D500008604FF04021C1F87008124908604FF058
:100D6000C80000F0B9F900200D4908600E4908607C
:100D70004FF0C80000F0B0F90120094908604FF0B9
:100D80004021C1F870084FF0640000F0A5F9002080
:100D90004FF04021C1F8740810BD000040410040F0
:100DA0006C490040744800407048004010B5012074
:100DB0001549086000F0C2FB00204FF04021C1F847
:100DC000B00800F0BBFB01200F49086000F0B6FB43
:100DD00000204FF04021C1F8B00800F0AFFB012027
:100DE0000949086000F0AAFB00200749086000F0EC
:100DF000A5FB01200449086000F0A0FB00214EF68D
:100E0000014000F037FC10BDB048004010B5FFF7BE
:100E100097FFFFF777FFFFF7C9FF4EF2035000F08F
:100E2000DBFB0F490860084601684EF2035000F0F2
:100E300073FC0B48006800F40040B0F5004F02D18D
:100E40006B2007490860FFF7C3FD01214EF22820FF
:100E500000F036FC4FF47A7000F03EF910BD00004F
:100E6000B00000200849032202EA907251F82210D3
:100E700000F01F0301229A401143034A032303EAAF
:100E8000907342F823107047040200400449096837
:100E900041EA00014FF08042C2F8001270470000A2
:100EA0000002004010B500F09DFD0148006810BD33
:100EB0007C00002030B500251648016811F4801F21
:100EC00001D0002030BD11F4002F01D0124A00E003
:100ED000124AC1F3813333B1012B06D0022B05D066
:100EE000032B07D104E0012304E000BF022301E04B
:100EF000042300BF00BFC1F30800841CC1F34420D9
:100F000000F1020C02FB04F0B0FBFCF0B0FBF3F5C7
:100F10002846D7E74002004000805101001BB7007F
:100F200070B504460D460A48006820F00F0040EAFC
:100F300005004FF08041C1F820020648006820F00B
:100F4000070040EA0400C1F8100200F04BFD70BD3C
:100F5000200200401002004070B50B460021002422
:100F60008C46C0F387258DB1134DC0F3814605EB48
:100F7000860CDCF80010C0F38725C0F34416B5409A
:100F800021EA050545EA0201CCF80010C0F34265EC
:100F900085B1094D103DC0F3017605EB860421684B
:100FA000C0F34265C0F30456B54021EA050545EAA1
:100FB0000301216070BD00002002004001464FF493
:100FC000D83205E0101EA2F1010201DC00207047BA
:100FD0000348006800EA01008842F3D10120F6E7E7
:100FE0005002004008B51548FFF73CFF4FF0804025
:100FF000406C40F080504FF0804148640846806C5F
:1010000040F0110088640E4B009308230422002155
:101010000C4800F0BFFB0B4800F0B7FB0948006824
:1010200040F001000749086001221103064800F062
:10103000C4F801200549086008BD00000D005052A9
:10104000801A06000010064080400040B048004072
:1010500010B501225103044800F0AFF8012211033A
:10106000014800F0AAF810BD4040004010B5002231
:101070002021164800F0A1F801220421134800F0B5
:101080008FF801220521114800F08AF800BF1120D5
:10109000002806DA052000010D496FF0020288548D
:1010A00004E0052000010B491122885400BF00BF55
:1010B0001120012101FA00F0112149094FF0E0222D
:1010C00002EB8101C1F8000100BF10BD40400040AB
:1010D00018ED00E000E400E04FF47A71484300BFEF
:1010E0000200A0F10100FBD170474FF47A7110FBB0
:1010F00001F100BF0A00A1F10101FBD1704700001E
:1011000000B50221012000F07DF80C4801F096FFA7
:101110000221084600F076F8094801F08FFF02210D
:10112000032000F06FF8074801F088FF0221042037
:1011300000F068F8044801F081FF00BD18000020AD
:101140002E000020440000205A00002072B6704794
:1011500062B670474FF04020006E10F0100F07D0BD
:1011600010204FF04021086601200C49087013E060
:101170004FF04020006E10F0200F07D020204FF0DD
:101180004021086601200549087005E04FF0402025
:10119000006E4FF04021086670470000B800002044
:1011A00010B58469130E8B401C438461C46922F01E
:1011B0007F438B401C43C46110BD70B503460020C3
:1011C0000EE0012484400C4209D01C68460003252F
:1011D000B540AC43450002FA05F52C431C60401CA9
:1011E0001028EED370BD000010B501221102044892
:1011F000FFF7E3FF012280210148FFF7DEFF10BD6A
:101200008040004070B506460C46012E06D0022EE6
:1012100008D0032E0AD0042E10D10BE004F17F0079
:10122000C5B20CE004F18F00C5B208E004F18700FC
:10123000C5B204E004F19700C5B200E000BF00BFF2
:10124000284600F039F870BD10B5FFF7CDFF30200B
:1012500000F032F80C2000F02FF8012000F02CF8FC
:101260000520FFF742FF022000F026F8062000F0DC
:1012700023F810BD002117E000220D4B1A6010F07A
:10128000800F04D0012203F104031A6002E000225F
:10129000084B1A600122064B1A604FEA40624FEA7F
:1012A000126001F10102D1B20829E5DB70470000AC
:1012B0009C480040A048004010B50446F820FFF7C5
:1012C000D9FF04F0F000FFF7D5FFF02101EA041088
:1012D000FFF7D0FF0120FFF708FF10BD10B504464F
:1012E000FA20FFF7C7FF04F0F000FFF7C3FFF0217B
:1012F00001EA0410FFF7BEFF0A20FFF7F6FE10BD5B
:1013000000F01F020121914042094FF0E02303EB5E
:101310008202C2F80011704710B5002807DA0A07E8
:10132000120E054B00F00F04241F1A5503E00A07A4
:10133000120E024B1A5410BD18ED00E000E400E05C
:1013400010B52DED048B94B07448007801287ED13F
:1013500073480078C04372490870084600787149A4
:1013600008604FF000006D4908704EF2025000F026
:1013700033F96D49086000F0E1F86B4801684EF2FE
:10138000025000F0C9F900F0D9F844F2C13000F081
:1013900023F9019044F2C03000F01EF902904EF2A1
:1013A000135000F019F903904FF4644000F014F961
:1013B000049044F2C33000F00FF9059044F2C230BB
:1013C00000F00AF906904EF2145000F005F907906B
:1013D0004EF2014000F000F9089044F2C53000F0F0
:1013E000FBF8099044F2C43000F0F6F80A904EF28F
:1013F000155000F0F1F80B904EF2024000F0ECF8BE
:101400000C904EF2076000F0A1F80D900D98401C72
:101410004FF47A31B1FBF0F00D904EF2015000F034
:10142000DBF80E909DED020AB8EE400A10EE104A6D
:101430009DED010A10EE100A00F064FA9DED020A1B
:1014400010EE100A00F03EFA9DED030A00E053E0B2
:1014500010EE100A00F076FA9DED040A10EE100A64
:1014600000F090FA2046FFF799F941EC100BB0EE2E
:10147000408AF0EE608A53EC182B2CA10FA800F0E4
:10148000F5FB80B209EE100A4FF47A710198B0FBB7
:10149000F1F02749088002984880039888806421E9
:1014A0000498B0FBF1F02249C8804FF47A71059896
:1014B000B0FBF1F01E4908810698488107988881A1
:1014C00064210898B0FBF1F01949C8814FF47A7192
:1014D0000998B0FBF1F0164908820A9848820B98E7
:1014E000888264210C98B0FBF1F01149C8820D98F4
:1014F00008830E98488300BF0E4800680E490968AB
:10150000401AB0F57A7F05D90A4800680A49086090
:10151000FFF7F6FD14B0BDEC048B10BDB800002041
:10152000D000002074480040B00000202566000074
:10153000A803002004000020D40000204FF47A709B
:1015400000BF0100A0F10100FBD17047FEB50546C8
:1015500000201E4908604FF001008DF804004FEA9A
:1015600015208DF80500E8B28DF806004FF0000454
:1015700007E001A8005D16490862FFF7DFFF601C65
:10158000C4B2032CF5DB124800F0FAF81048006BE7
:101590001049087000240BE000200D490862FFF795
:1015A000CDFF0B48006BC0B20DF80400601CC4B244
:1015B000022CF1DB9DF801009DF8001000EB0126E4
:1015C0000120024908603046FEBD0000B0480040DE
:1015D00000100640A8000020FEB505460020224964
:1015E00008604FF001008DF804004FEA15208DF8D7
:1015F0000500E8B28DF806004FF0000407E001A8EE
:10160000005D1A490862FFF799FF601CC4B2032C01
:10161000F5DB164800F0B4F81448006B1449087064
:1016200000240BE0002011490862FFF787FF0F48F4
:10163000006BC0B20DF80400601CC4B2042CF1DBD6
:101640009DF8000000069DF8011000EB01409DF898
:10165000021000EB01209DF80310461801200249FA
:1016600008603046FEBD0000B04800400010064053
:10167000A80000203CB503460D4600200E49086036
:101680008DF800004FEA13208DF80100D8B28DF8D4
:1016900002008DF803504FF0000407E01DF804002D
:1016A00006490862FFF74AFF601CC4B2042CF5DB50
:1016B0000120014908603CBDB048004000100640D0
:1016C0003CB503460C460020114908608DF8000027
:1016D0004FEA13208DF80100D8B28DF802004FEACE
:1016E00014208DF80300E0B28DF804004FF00005DF
:1016F00007E01DF8050007490862FFF71FFF681C97
:10170000C5B2052DF5DB0120014908603CBD000094
:10171000B0480040001006403CB504460B4600208F
:10172000154908608DF800004FEA14208DF801007B
:10173000E0B28DF802004FEA13608DF803004FEA23
:1017400013408DF804004FEA13208DF80500D8B23D
:101750008DF806004FF0000507E01DF80500074969
:101760000862FFF7EBFE681CC5B2072DF5DB012010
:10177000014908603CBD0000B04800400010064030
:10178000016941F0010101617047816821F00801A0
:10179000816070472DE9F0470446884692461F460F
:1017A000DDF82090202F00D1002748EA072040EAEA
:1017B0000A002060FFF776FB05464FF6FF76B9F189
:1017C000000F0CD0B5FBF9F6B6F5803F01D34FF60C
:1017D000FF7660686FF30F003043606001E0002027
:1017E0006060701CB5FBF0F0BDE8F08710B5FFF746
:1017F0002BFDFFF72DFCFFF7F5FBFFF737FC10BDC6
:1018000010B500F027F80120FFF740FB0120FFF79B
:10181000D5FB00210846FFF783FB0D48006840F424
:1018200080304FF08041C1F8400244F21A0008496C
:1018300008604FF00400FFF7C1FB00210220FFF712
:101840006FFB00F0CFF84FF47A7000F019F810BD7C
:10185000400200400CE05920084908604FF0160093
:101860004FF08041C1F800014FF088000349086043
:10187000024800680128EED17047000000010040D6
:101880000D49096841434FF0E02251610021916107
:101890000721116100BF5117002905DA0121090153
:1018A000064A0B23D15404E001210901044A5317CD
:1018B000D15400BF704700008000002018ED00E008
:1018C00000E400E010B5044622460AA10A4800F0F0
:1018D000CDF90A4908700846007809490978884214
:1018E00006D006480078064908700120FFF7E4FC9E
:1018F00010BD0000256400003400002072000020AC
:101900007300002010B5044622460AA10A4800F0E0
:10191000ADF90A49087008460078094909788842F3
:1019200006D006480078064908700120FFF7C4FC7D
:1019300010BD0000256400001E0000207000002083
:101940007100002010B5044622460AA10A4800F0A2
:101950008DF90A49087008460078094909788842D3
:1019600006D006480078064908700120FFF7A4FC5D
:1019700010BD0000256400004A0000207400002013
:101980007500002010B5044622460AA10A4800F05E
:101990006DF90A49087008460078094909788842B3
:1019A00006D006480078064908700120FFF784FC3D
:1019B00010BD0000256400006000002076000020BB
:1019C0007700002010B506480068401C04490860F4
:1019D00001F0B0FC02F0BEFB01F0C4FC10BD000041
:1019E0000400002070B51049096801F00704022CBA
:1019F00003D00E4951F8240001E0FFF75BFA0C49CF
:101A0000096801F00F0101F10105B0FBF5F1094A88
:101A1000116011460968084A11444FEA4202B1FBBD
:101A2000F2F1064A116070BD1002004084000020EF
:101A3000200200407C00002020A107008000002040
:101A400000200449096841F470014FF0E022C2F817
:101A5000881D704788ED00E00021016041617047FA
:101A6000016841F0005101607047000030B589B055
:101A700005462022194901A8FEF7F9FC18488542BD
:101A800004D118480068C0F3022414E01448203040
:101A9000854204D113480068C0F302340BE01248B9
:101AA000854204D10F480068C0F3024403E00D48AA
:101AB0000068C0F30254022C0CD10C48006810F0EE
:101AC000400F04D00A480068400809B030BD0848FB
:101AD0000068FAE701A850F82400F6E7544800002F
:101AE00000000540140200400010054010020040B4
:101AF0007C0000202DE9F047054689461646284619
:101B0000FFF7B4FF04460027B846B6EB540F01D9DF
:101B1000022715E0B4F1806F03D34FF00708E40803
:101B20000CE0B4F1007F03D34FF00308A40805E0F4
:101B3000B4F1807F02D34FF001086408B4FBF6F7DC
:101B400049EA080028606F6008F101007843B4FB9F
:101B5000F0F0BDE8F087016821F080410160704736
:101B600010B50E48007880B10D480068401C0C4943
:101B70000860084600680B490988884208DB01F0C4
:101B800079FA00200649086002E000200449086054
:101B900000BF01200449886000BF10BDE0000020A4
:101BA000E4000020E80000200000054010B50748D0
:101BB000C46914F4807F02D001F064FA04E014F4E4
:101BC000007F01D001F066FA10BD00000030074030
:101BD000416821F440514160704742688A43426045
:101BE000704742680A434260704700002DE9FF4198
:101BF00005460C461B4B0FCB8DE80F00FFF75AF93B
:101C0000019019480068C0F301684FF00000286394
:101C10004FF00300E8604FF00000A8605DF8281066
:101C20004FF08040D0F82002C0F3032000F1010003
:101C3000B1FBF0F79CB107EB5400B0FBF4F0861E4B
:101C4000B6F5803F08D307EBC400B0FBF4F00221E7
:101C5000C1EB1010686202E046F040506862BDE8D7
:101C6000FF81000034480000140200400FB4084B0C
:101C700010B504A902AA039800F0ECF8044602A9E2
:101C8000002000F023FD204610BC5DF814FB00008E
:101C9000CD260000014609B90020704711F0FF0F62
:101CA00004D0C8B20D4A105C401CF6E711F47F4F17
:101CB00005D00A48C1F30722805C0930EDE711F432
:101CC0007F0F05D00548C1F30742805C1130E4E77F
:101CD000024800EB116000781930DEE7744C000018
:101CE00002E008C8121F08C1002AFAD170477047E5
:101CF000002001E001C1121F002AFBD17047000043
:101D00002DE9FF5FDDE90210020DDDF838B0014377
:101D10000FD10F9801244AA3012807D000980F9AE9
:101D2000C0E90031C0E90242BDE8FF9F6FEA0B0144
:101D3000F4E7A2F2FF3244F61050424315140F9814
:101D400001280FD0A5EB0B00401C4FF000043D4EC6
:101D5000DFF8F490B0F1000AA046C0F1000717DBED
:101D6000074615E0CBF10000EFE7F80707D0224661
:101D7000334640464946FEF731FC804689462246B6
:101D8000334620463146FEF729FC04460E467F10B6
:101D9000002FEAD1DDE90201BAF1000F42464B46BD
:101DA00002DAFEF71BFC01E0FEF789FC04460E4652
:101DB0000022264BFEF7B8FD03D84FF0FF30014656
:101DC00007E00022224B20463146FEF762FBFEF779
:101DD00093FD102409E0002C0ADB0A220023FEF701
:101DE00003FB019B30321A55641E50EA0102F2D106
:101DF000641C019AC4F1110314440F9A012A07D0FC
:101E00000122084301D15B450DDD00226D1C0DE070
:101E1000084303D1A3EB0B056D1E09E000204FF032
:101E2000110B0F908BE701DA00226D1E002A86D07D
:101E300000980F99C0E90231C0E9004574E700003D
:101E400030000000000024400000F03F0000F0439C
:101E50000000E03F2DE9FF4F95B006469A460F4639
:101E60000025F2E1252878D10024761CFB4AA04603
:101E7000012106943378203B01FA03F0104202D08E
:101E80000443761CF6E730782A2811D06FF02F0231
:101E90003078A0F13001092915D8069944F00204E0
:101EA00001EB810102EB41010844761C0690EFE74B
:101EB00001CF0690002803DA404244F40054069013
:101EC00044F00204761C30782E2817D116F8010F42
:101ED00044F004042A280ED06FF02F023078A0F1CD
:101EE000300109290AD808EB880102EB410100EB17
:101EF0000108761CF2E757F8048B761C30786C28C2
:101F00000FD006DC4C2817D068280DD06A2814D1D1
:101F100004E0742810D07A280FD10DE044F40014A6
:101F20000AE044F4801401E044F4401471788142E2
:101F300002D1761C04F58014761C3078864666281B
:101F40000AD012DC582872D008DC80B3452803D0B0
:101F5000462801D047281AD196E118E0632832D0EC
:101F6000642875D0652812D18EE170286ED008DC07
:101F700067286CD069286BD06E280DD06F2806D1E9
:101F8000A9E0732828D075286FD078286ED05246E3
:101F9000179990476D1C56E1C4F30250022807D0F0
:101FA00003280BD0042801CF0BD005604BE150E192
:101FB00001CF4FEAE571C0E9005144E101CF05804E
:101FC00041E105703FE101CF8DF8000000208DF860
:101FD0000100EB46012003E057F804BB4FF0FF304F
:101FE00061074FF0000102D40DE009F101018946BB
:101FF00041450FDA8145F8DB1BF809100029F4D1BF
:1020000008E009F1010189468142FADB1BF8091059
:102010000029F6D106985346A0EB090080462146D8
:10202000179A00F094FA284400EB090505E047E010
:102030001BF8010B524617999047B9F10109F7D2E5
:10204000534621464046179AFAE001E03AE01BE188
:102050000A21C4F302524FF0000B0091022A06D06D
:1020600001CFC117032A08D009E022E023E0FF1DB9
:1020700027F00707F7E8020105E000B2C117042ABC
:1020800001D140B2C117002906DA0A4600214042B8
:1020900061EB02012D2202E0220504D52B228DF8EE
:1020A0000420012203E0E20701D02022F7E7914655
:1020B00053E00A2110E010204FF0000B00900EE0DA
:1020C000102109E010204FF0000B44F004044FF001
:1020D0000808009003E008214FF0000B0091C4F3C2
:1020E0000252022A04D001CF0021032A06D007E0C1
:1020F000FF1D27F00707F7E8020105E080B2002185
:10210000042A01D1C0B200214FF00009220724D5D2
:10211000BEF1700F2AD0009B83F0100353EA0B032B
:1021200009D150EA010206D030228DF804208DF842
:1021300005E002229146009B83F0080353EA0B035B
:102140000BD150EA010201D1620706D530228DF889
:1021500004204FF00109A8F1010841A2BEF1580F77
:1021600000D044A203920FAA02920FE040228DF801
:1021700004200122DEE75B46009AFEF735F9039B57
:102180009B5C029AA2F101020292137050EA0102D2
:10219000F1D1029807A9A1EB000000F1200B600724
:1021A00002D524F4803401E04FF0010800204146BC
:1021B0005A46D84501DDA1EB020000EB0B0100906F
:1021C00006984944A0EB01000690E00306D453466C
:1021D0002146179A069800F0BAF90544002008E055
:1021E00001A8524610F80800179990476D1C08F195
:1021F000010080464845F3DBE0030CD553462146F9
:10220000179A069800F0A3F9054404E030205246DE
:10221000179990476D1C0099481E00900029F5DC25
:1022200008E00298029952460078491C02911799D9
:1022300090476D1CBBF10001ABF1010BF1DC67E1D4
:1022400000F072F9054406F10106307800287FF4A9
:1022500009AE19B02846BDE8F08F0000092801003A
:1022600030313233343536373839414243444546CC
:10227000000000003031323334353637383961628E
:102280006364656600000000600701D44FF0060833
:1022900007F1070727F00707A0A1F7E8020C0CF0E9
:1022A00000431A0007D19EA1220504D49DA1E20794
:1022B00001D1AFF2440112912CF0004C7146BEF1F5
:1022C000650F0ED007DC45290BD0462920D0BEF182
:1022D000470F3DD13DE066291AD0BEF1670F37D1D7
:1022E00037E0002311224146B8F1110F00DA4A1CF1
:1022F000CDE900230246634607A902A8FFF700FDC7
:10230000012000904FF0000B08F10109039868E0EC
:102310004FF000410F910123CDE90083024663464F
:1023200007A902A8FFF7ECFCDDE904904FF0000BD1
:1023300020B9039908F1010001EB0009B8EB09008D
:1023400003D4C0F1FF3B08F10109A9EB080000909C
:1023500048E04146B8F1010F01DA01218846002327
:102360001122B8F1110F00DC0A46CDE90023024624
:10237000634607A902A8FFF7C3FC4FF0000BC14654
:1023800020070FD40499414503DA894601E0A9F1F9
:102390000109B9F1010F05DD0299A9F10100085CFD
:1023A0003028F4D00399414502DA11F1040F03DA21
:1023B00001200F91009015E0002903DC8B44A9EB6C
:1023C000010005E0481C484503DD039800F10100C9
:1023D00081460399A1EB0B0000F1010000904FF042
:1023E00000400F90200705D40098484502DB4FF0CD
:1023F000FF30009000210F980DF147088DF847102D
:10240000B0F1004F26D0022001902B2013900F989E
:1024100000280CDA40420F902D20139007E00A218B
:102420000F98FEF7D1F930310F9008F8011D01998E
:10243000481E01900029F2DC0F980028EFD1A8F186
:10244000010213991170317801F0200141F045012A
:1024500008F8021D10A9A1EB080000F10700019087
:102460001298007800B1012000EB0901009801EBFF
:10247000E071019801440698A0EB0100A0F1010071
:102480000690E00306D453462146179A069800F0BA
:102490005EF805441298007820B15246179990478B
:1024A00005F10105E00322D553462146179A069807
:1024B00000F04DF805441AE0BBF1000F07DB04996A
:1024C000594504DD029911F80B00179901E017999D
:1024D00030205246904700986D1C401E0BF1010BB6
:1024E000009004D12E205246179990476D1CB9F1E7
:1024F0000001A9F10109DFDC05E018F8010B5246E3
:10250000179990476D1C0199481E01900029F4DC31
:1025100053462146179A069892E600002D000000C7
:102520002B000000200000002DE9F04104460025AA
:1025300017461E46880405D406E039462020B047D9
:1025400005F10105641EF8D52846BDE8F0812DE9A6
:10255000F04104460025302790461E46C80300D4AB
:102560002027880405D506E041463846B04705F1E6
:102570000105641EF8D52846BDE8F08170B5044613
:1025800024B9002000BF0028FDD000BFA16AE06987
:10259000884205D9A18DA06A0844E169884206D223
:1025A000FDF79AFE054600BF002DFDD100E000BFFB
:1025B00070BD00002DE9F0432DED028B83B0044681
:1025C000894616461F46DDED0C8ADDE90D859DED39
:1025D0000F8A04F114004060006000BF2662676249
:1025E000C4ED0A8AA4F82C80A28D2321A06A01F0F0
:1025F0006DF8B4F82CC0A36A63441A1F154BD4E9D4
:10260000080100F05DFEE061202D04DB002000BF2A
:102610000028FDD000BF84F8365084F8355084ED92
:10262000118A84ED128A0020206384F83400A067A8
:10263000E0670023009301932346074A214604F1F3
:102640004C0001F026FE002003B0BDEC028BBDE87B
:10265000F0830000E13D0000AB4000002DE9F047B1
:1026600004460E4617469846DDF8209084F80990F7
:10267000607A20F001006072E66127620020A062AB
:10268000C4F82480002506E004F1140101EBC50024
:1026900000F0CAFE6D1C012DF6DBBDE8F08710B519
:1026A0000246002001460EE002F1140303EBC100D4
:1026B000D0E900436360D0E90034236040600060EB
:1026C00000BF481C01460129EEDB10BD0A68531CFF
:1026D0000B6010707047000010B50246002009E042
:1026E00012F8014B84EA2023054C34F8133083EAB6
:1026F000002398B20B1EA1F10104A1B2F0DC10BDC1
:10270000744A00002DE9F04104460D460027207868
:1027100004283ED16078022806D0042812D005286B
:102720001AD006282DD122E00820207002206070E7
:102730000020A0708920E0700020207160710620C8
:1027400028801EE006202070042060700020A07009
:10275000E0700420288014E00620207005206070BE
:102760000320A070E820E0700420288009E0062003
:10277000207060705520A070F020E0700420288048
:1027800000BF00BF00262EB1304600F062FC0746B5
:1027900000E003273846BDE8F081000010B50024B2
:1027A00006480078012806D10548006880470020C7
:1027B0000249087000E00624204610BD1C010020DC
:1027C000B00100202DE9F04705460C464FF0000A05
:1027D0002088052837D168784FEA0028A87840EA91
:1027E000080808F101001FFA80F8E87806022E793F
:1027F000012E25DB7D2E23DC2F46002020800320A8
:1028000007F8010B2088401C20807006000E07F896
:10281000010B2088401C2080002332464146384668
:1028200000F0DEFA8146B9F1000F04D0484600F00E
:1028300010FC824609E0208800EB4600208004E07E
:102840004FF0030A01E04FF0030A5046BDE8F0875D
:102850002DE9FC5F04460D460020009028880A28D8
:102860005DDB60784FEA002AA07840EA0A0A0AF1A4
:1028700001001FFA80FAE0780602207906436079A9
:102880004FEA002BA07940EA0B0B0BF101001FFA75
:1028900080FBE0790702207A0743607A0190012EDD
:1028A0003BDB7D2E39DC012F37DB792F35DC7900DE
:1028B0000198814231D101233A46594604F10A0078
:1028C00000F08EFA8146B9F1000F1ED1A04600201B
:1028D0002880172008F8010B2888401C28807006E3
:1028E000000E08F8010B2888401C2880002332467F
:1028F0005146404600F074FA8146B9F1000F04D108
:102900002888022101FB06002880B9F1000F06D0BB
:10291000484600F09EFB009001E0032000900098E4
:10292000BDE8FC9F70B504460D460648028806497E
:10293000601CFDF79CFD03480088401C2880002097
:1029400070BD000018010020101F00202DE9F0418B
:1029500004460F464FF000083888052812D16078E9
:102960000502A0780543681C85B201231A46294652
:10297000E01C00F035FA064636B1304600F069FB3F
:10298000804601E04FF003084046BDE8F0810000BA
:102990002DE9F04705460C4616461F46DDF8209007
:1029A0004FF000081CB1012C01DBF72C02DD4FF0C9
:1029B000020835E01C48047005BB1C481C4908602F
:1029C0001C481D4908601D481D4908601D481E49D6
:1029D000086000201D4908601D481E4908601E4807
:1029E0001E4908601E481F4908604B463A4631465A
:1029F0000D48007800F02CF9804602E04FF0020804
:102A000000BF00BFB8F1000F0AD101F0CBFD10B933
:102A10004FF0030804E014480570012013490870C2
:102A20004046BDE8F0870000A9010020A52D000068
:102A3000B0010020C92D0000B4010020152D0000B8
:102A4000AC010020A92C0000B8010020BC0100202E
:102A500001470000C0010020C9470000C401002058
:102A600089470000C8010020AA0100201C010020A5
:102A700038B500256C48007808B1062038BD684696
:102A800001F07EFD01287AD19DF80000052804D2CE
:102A9000DFE800F0030476C52700C1E0634A64491B
:102AA0006448654B1B68984705465DB961480078E6
:102AB00062490978884202D05E48007810B9022045
:102AC00001F078FD082D0BD15A4800785B49097850
:102AD000884202D05748007810B9042001F06AFDFE
:102AE0009EE0534800680078554908700120554918
:102AF0000870002417E0544810F8340000B914E0BE
:102B0000514810F834004E49097888420AD14E489D
:102B100000EBC40045494268454800689047494970
:102B2000087002E0641C102CE5DB00BF414800780F
:102B300020B344480078C0B100203C490880404898
:102B4000007840F080000A880988491C374B1980BA
:102B50003749096888543B4801781846028800883C
:102B6000401C188032480068815430480288304840
:102B700001683248007800F0A1F9C5B250E050E099
:102B80002B48006800782E49087001202D490870F4
:102B9000002417E02C4810F8340000B914E02A484B
:102BA00010F834002649097888420AD1264800EBFB
:102BB000C4001E4942681E480068904721490870B9
:102BC00002E0641C102CE5DB00BF1A48007828B333
:102BD0001C480078C0B100201449088018480078CB
:102BE00040F080000A880988491C104B1980104960
:102BF0000968885413480178184602880088401CE8
:102C000018800B4800688154084802880848016809
:102C10000A4800780D4B1B689847054600E000BF46
:102C200000BF00202AE700001C010020A6010020B0
:102C3000A0010020A4010020B8010020A90100206B
:102C4000A5010020A801002020010020AC010020E7
:102C50002DE9F04781460E4614461F464FF0000806
:102C6000FEF774FA3B4608222146304601F0B6FCD6
:102C7000012802D04FF003080FE0B4F5964F01D9B8
:102C8000232503E060000749B1FBF0F5A8B201F08D
:102C900007FD012801D04FF00308FEF759FA40461E
:102CA000BDE8F087A07F17002DE9F04104460D46EE
:102CB00016460027FEF74AFA14480088042810DB5D
:102CC00012480188124801F0DDFB50B91048007825
:102CD00020700E480088C01E30800D48401C2860BF
:102CE0000FE00A48008804280ADB094800792070B0
:102CF0000648008830800648801D2860082700E0CC
:102D00000527FEF725FA3846BDE8F08112010020BC
:102D1000101E00202DE9F04105460E4617464FF0E3
:102D20000008FEF713FA1A480078012829D1701E0E
:102D30001849086001201849088016480068057085
:102D40000846008838440880084601881148006811
:102D500001F098FB0446104A1088421C0E4B1A8062
:102D60000E4A145421121A461088421C1A800B4A2B
:102D7000115401200A4908700121002001F09EFB36
:102D800001E04FF00508FEF7E3F94046BDE8F081A9
:102D9000090100200C01002010010020101E00205D
:102DA0000801002010B5FEF7D1F900200549087090
:102DB0000021012001F082FB01F0B8FBFEF7C8F909
:102DC00010BD00000901002010B5FEF7BFF9002179
:102DD000084601F073FB01F095FBFEF7B9F910BD51
:102DE0002DE9F04704460E4615461F464FF0000AEF
:102DF00001F0C4FB90B101F043FB00EBC00C0CEB05
:102E00000010DFF898C00CEBC00201234FF06408FB
:102E10002348008800F0FF09012707E0214A012329
:102E20004FF064082048008800F0FF099E4230DB24
:102E3000701903EB080C60452BDCA6EB090117B1F8
:102E4000012F25D10FE00BE032F81100001204F839
:102E5000010B32F8110004F8010B491C681E85B201
:102E6000002DF1DC14E010E014F801CB4FEA0C2047
:102E700022F8110014F8010B32F811C040EA0C00DE
:102E800022F81100491C681E85B2002DECDC00BF41
:102E900001E04FF0010A5046BDE8F0879011002094
:102EA000F8000020A8030020F000002010B5FDF776
:102EB00013FA01F0C5FA002010BD00002DE9F04121
:102EC00006460F4614464FF00008FEF73FF924B9B6
:102ED000FEF73EF94046BDE8F08128480078012819
:102EE00046D1274827490860FF2009680870552007
:102EF0002449096848700520224909688870002023
:102F000020490968C8701F480068067100201D49E3
:102F10000968487106201C4908801A4909681A4A3C
:102F20001288881822463946FDF7A1FA164800880B
:102F30002044154908800846018812480068FFF7B8
:102F4000CBFB05462912104A1088421C0E4B1A80F2
:102F50000B4A11541A461088421C1A80084A15540C
:102F600001200A4908700121002001F0A7FA01E0C0
:102F70004FF00508FEF7ECF84046ACE709010020E9
:102F8000101E00200C01002010010020080100206C
:102F900030B5274B1B68984204D2002300BF002B9A
:102FA000FDD000BF234B1B68984204D3002300BF11
:102FB000002BFDD000BF438823B1002300BF002BAE
:102FC000FDD000BF1A4C436824681919884215D0F7
:102FD0004B889BB9174B1B6899420FD0164B1B6847
:102FE0008B4201D1144B18604B684360104B1B6837
:102FF000C31A0F4D4C682D682C44A3600C4C836899
:1030000024681A19824211D053887BB90A4B1B6875
:10301000834201D1084B1A6043685360044B1B681C
:10302000D31A034D44682D682C44A36030BD0000C2
:10303000E8010020EC010020F001002010B504465A
:1030400003E02078FEF74AF9641C20780028F8D1C4
:1030500010BD014621B1012904D0072906D103E0A2
:10306000002005E0022003E0062001E0042000BF6C
:1030700000BF704710B502480068804710BD0000CF
:10308000C801002010B502480068804710BD00004C
:10309000C001002010B502480068804710BD000044
:1030A000C40100201FB514230822CDE90023130218
:1030B0000022164916A000F03AFE044614B120463C
:1030C00000F0A6FF05230B224FF4806112488DE823
:1030D0000F000023114A12A1154800F021FF1448E7
:1030E00000F096FF05230A224FF4806111488DE815
:1030F0000F000023104A11A1134800F011FF1248DD
:1031000000F086FF002004B010BD00000533000071
:10311000696E697400000000D0240020913D000019
:10312000506F7765724D65617375726D656E740071
:10313000D028002050290020BD3D000052733438B3
:1031400035636F6D6D000000502D00202DE9F041BA
:10315000DFF83880D8F8045010E00C202C1A676A89
:103160005FB1E08A10F0100F07D12046B84706463D
:103170001EB9E08A40F01000E0822D6808F10400DA
:103180008542EAD10020BDE8F081000070020020F5
:1031900070B5054600BFFDF79FF8064600F0DCF865
:1031A00020B1002000BF0028FDD000BF3046FDF751
:1031B00097F800BF05B970BD15F0070F04D00020C7
:1031C00000BF0028FDD000BF2A480068854203D315
:1031D00029480068854204D3002000BF0028FDD0A4
:1031E00000BF00BF2548006818B128462349096878
:1031F000884700BF1F480068854203D31E48006807
:10320000854202D300BF00BFD5E7A5F1100400BF7F
:1032100000BF4FF0FF311A4800F032FC608820B93F
:10322000002000BF0028FDD000BF2088B0F5F55F6A
:1032300004D0002000BF0028FDD000BF0020608027
:10324000208010480068844201D20E480460094979
:1032500060680968611A401A0B490968081A0A4926
:1032600008602046FFF794FE054800F0DFFB00BF32
:10327000A1E70000E8010020EC010020E4010020AB
:10328000B0230020F0010020F801002010B5FEF767
:10329000B7FAFEF7ABFAFDF7B9FD10BD70B50546FC
:1032A0000648006838B1284604490968884704463A
:1032B00004B970BD00BF00BFFEE70000D0020020CF
:1032C000F0B504460D4694460CF1040020F00700CA
:1032D00044380146002203E0094E41F82260521CA6
:1032E000112AF9D34D6200278F62CF620F634F63BB
:1032F0008B63CC634FF080770F6400260E60F0BDC7
:10330000EFBEADDE10B52DED028B82B0044600237A
:1033100000934FF41653002202211046FFF738FBAA
:1033200008EE100AFFF73AFA08EE100A02B0BDECF8
:10333000028B10BD10B500BF00BFFCF7CDFF0446E7
:1033400004480078401C034908702046FCF7C8FF79
:1033500010BD0000DC01002001480078704700002B
:10336000DC01002010B500BF00BFFCF7B5FF04462C
:1033700004480078401E034908702046FCF7B0FF5F
:1033800010BD0000DC01002070B504461420216847
:103390000D1A00BF00BF284600F0E7FD002070BDF9
:1033A0002DE9F04105460C469046204600F05CFEB3
:1033B000B8F1000F03D0B8F1010F23D105E004F1FB
:1033C0001401284600F048F81CE02E680FE0142095
:1033D000371A94F8350097F83510884206DA04F168
:1033E000140107F1140000F037F802E03668AE422D
:1033F000EDD100BFAE4204D104F11401284600F023
:103400002BF800BF00BF0020BDE8F08110B50446D6
:1034100004F1140000F002F8002010BD40600060CC
:10342000704740600060704740600060704702680D
:10343000516002680A60016048607047026851602C
:1034400002680A6001604860704702685160026863
:103450000A600160486070474268116042684A60D3
:1034600041600860704701460868884201D1012028
:1034700070470020FCE701460868884201D101201E
:1034800070470020FCE701460868884201D101200E
:1034900070470020FCE7D0E900215160D0E900121C
:1034A0001160406000607047D0E900215160D0E9B0
:1034B0000012116040600060704700002DE9F04785
:1034C000054600BFFCF708FF8146FFF745FF20B126
:1034D000002000BF0028FDD000BF4846FCF700FFD9
:1034E00000BF15B90020BDE8F087E81D20F00700F7
:1034F000A84201D000BF01E000BF00BFE81D20F0DE
:1035000007056A480068854203D900BF00BF002054
:10351000E9E7102D00D210254FF0FF31644800F08C
:10352000AFFA6448006864490968461AB2E0624824
:10353000006884196088D8BB06F110006168081A19
:10354000A84235D306F110006168091A05F1200080
:1035500081422ED306F1100000EB050856480068A2
:1035600000EB08070020788060687860BE60C4F8CF
:103570000480012060804D487968006810308142E5
:1035800005D04D49786809680844C0F808804B4860
:10359000016805F11000084448490860484800687F
:1035A000096888421AD2454800684549086015E014
:1035B0006CE001206080404960680968611A401A27
:1035C0003E49096808443D4908603D48006809686B
:1035D000884203D239480068394908604FF4F550F1
:1035E000208034480068844221D107E031480068D7
:1035F00040683149096808442E4908602D48006830
:10360000408828B12B4800682E4909688842EDD1CE
:10361000284800682B490968884208D02548006876
:10362000408820B1002000BF0028FDD000BF204806
:1036300000F0FCF904F1100028442249096888428E
:1036400004D9002000BF0028FDD000BF14F0070FF0
:1036500004D0002000BF0028FDD000BF14F0070FE9
:1036600004D0002000BF0028FDD000BF00BF00BF75
:1036700000BF1548006828B1294604F11000124A1D
:103680001268904700BF04F110002CE70A48006858
:103690003044466805480068401BB0423FF647AFDB
:1036A000034800F0C3F900201DE70000F4010020EA
:1036B000B0230020F0010020E8010020F8010020E4
:1036C000FC010020EC010020E0010020F0B50C46D8
:1036D0000546E6B2042A15D310F0030F12D10146B5
:1036E00046EA062343EA034304E008C108C108C1CF
:1036F00008C1103A102AF8D201E008C1121F042AAA
:10370000FBD20D4601E005F8016B1700A2F10102A2
:10371000F9D1F0BD2DE9F04705460F4600BFFCF793
:10372000DBFD8146FFF718FE20B1002000BF002816
:10373000FDD000BF4846FCF7D3FD00BF144800EBA6
:103740000516F068FFF7BAFE044614B90020BDE87C
:10375000F08725720020607208223946204600F06A
:103760000EFA00BF0B48006818B1204609490968E5
:10377000884700BFFCF7B0FD804604F10C01301D06
:10378000FFF755FE4046FCF7ABFD2046DFE70000A3
:10379000000200209002002070B5044624B90020E9
:1037A00000BF0028FDD000BF207A10F0800F04D0A9
:1037B000002000BF0028FDD000BF00BF0A480068FD
:1037C00018B1204608490968884700BFFCF784FD06
:1037D000054604F10C00FFF75EFE2846FCF780FD6D
:1037E0002046FFF7D5FC70BD9402002070B504465A
:1037F00024B9002000BF0028FDD000BF00BF094849
:10380000006818B1204607490968884700BFFCF7DF
:1038100063FD054604F10C00FFF73DFE2846FCF76A
:103820005FFD70BD940200202DE9F04104460D4675
:103830001646104800EB051745F08000207208225C
:103840003146204600F09BF900BF0B48006818B1D4
:10385000204609490968884700BFFCF73DFD8046BE
:1038600004F10C01381DFFF7E2FD4046FCF738FD7E
:10387000BDE8F0810002002090020020014621B93D
:10388000002000BF0028FDD000BF087A10F0800F94
:1038900001D0012070470020FCE700002DE9F04135
:1038A000FCF71AFD07461E480088A0BB1D480068AB
:1038B000FEF7F0F9461E1C4850F8361014200C1A7A
:1038C0001A480068844225D019490E7017480568C7
:1038D000046000BF1748006820B121462846154AF9
:1038E0001268904700BF00BF00BF2046FEF746FEAB
:1038F0001148007830B904F11C0105F11C00FCF7F7
:10390000F2FC07E000BF00BF04F11C0105F11C0040
:10391000FCF7E9FC00BF3846FCF7E2FCBDE8F081AB
:10392000A4020020B0020020D0230020A802002022
:10393000AC020020BC020020DC01002070B504466F
:1039400024B9002000BF0028FDD000BFFCF7C4FC54
:103950000546012084F8340094F835200B4B03EB26
:10396000C20004F114014268116042684A6041607B
:10397000086000BF00BF00BF0549A06B096808438D
:10398000034908602846FCF7ABFC70BDD02300203B
:10399000B002002070B5044624B9002000BF002802
:1039A000FDD000BFFCF798FC054600BF00BF04F146
:1039B0001400D0E900215160D0E90012116040608C
:1039C000006000BF94F83510094A02EBC10001689D
:1039D000814201D1012100E0002129B10548A16BFC
:1039E00000688843034908602846FCF779FC70BDED
:1039F000D0230020B00200202DE9F04104460F46FC
:103A000015461E4624B9002000BF0028FDD000BF87
:103A10003A4601212046FFF707FF2046FFF7F6FC54
:103A2000A58366720020BDE8F081000070B50446F1
:103A300000BF1248006818B120461049096888473D
:103A400000BF0025FCF748FC064600BF00BF04F19C
:103A50001400FFF710FD28B904F11400FFF794FCDF
:103A6000012502E0A08B401CA0833046FCF738FC07
:103A7000012D01D1FFF712FF002070BDA002002030
:103A80002DE9F341054625B9002000BF0028FDD0EF
:103A900000BF00BF3748006818B12846354909689B
:103AA000884700BFFCF718FC064600BF00BFA88B84
:103AB000002806DDA88B401EA8833046FCF710FCCA
:103AC0004DE0019830B93046FCF70AFC6FF0010078
:103AD000BDE8FC8100BFFCF7FFFB804600F06CFAFC
:103AE00020B9002000BF0028FDD000BF00BFFCF7B8
:103AF000F3FB0746FFF730FC20B1002000BF002891
:103B0000FDD000BF3846FCF7EBFB00BF4046FCF79A
:103B1000E7FB00BF00F050FA04460021216300BF1C
:103B200000BF6A7A214605F11400FFF739FC0198BD
:103B300000280BDD00BF00BF01AA002104F14C00EA
:103B400000F06EFB04F14C0000F0C0FB3046FCF7C7
:103B5000C7FBFFF7A3FE206B08B1206BB8E700BFDF
:103B60000548006818B1284603490968884700BF1E
:103B70000020ADE7980200209C020020704730B57D
:103B80000346A2B118468C4600BF1CF8015B00F842
:103B9000015B3DB902E0002400F8014B541E2200F5
:103BA000F9D102E0541E2200EFD100BF00BF184639
:103BB00030BD00002DE9F04707468846F81D20F08B
:103BC000070528F0070600BFFCF786FB8146FFF7D4
:103BD000C3FB20B1002000BF0028FDD000BF484635
:103BE000FCF77EFB00BF202E08D9A6F12000A842DA
:103BF00004D3701B20381D49086001E0BDE8F08740
:103C00001B48056000BF00BF04684FF4F5502080DA
:103C100016480068103060600020A0606080144981
:103C2000606809680844134908604FF4F550096852
:103C3000088001200F49096848800C48006810304E
:103C40000C4909684860094800681030094909684A
:103C500088600023012208A10948FFF7CDFE04482F
:103C600000680849086000BFC8E70000F4010020B0
:103C7000E8010020EC010020686561700000000090
:103C8000B0230020F00100207047000010B5002094
:103C90000C49088000BF00BF002405E00A4901EB81
:103CA000C400FFF7BEFB641C202CF7DB1F20074974
:103CB0000870002006490860064908600648FFF7BA
:103CC000B0FB10BDA4020020D0230020AC020020D5
:103CD000A8020020B0020020B402002070B50848FD
:103CE0000068FDF7D7FF451E064850F83510142030
:103CF0000C1A0548046004F11C00FCF73AFB70BD87
:103D0000B0020020D0230020A8020020704700004D
:103D100010B5002405E0044901EBC400FFF784FB63
:103D2000641C002CF7D010BDC402002070472DE9A0
:103D3000FF5F06460F4690461C46DDE90EAB314656
:103D40000020FFF7E7FC8146B9F1000F03D1002006
:103D500004B0BDE8F09F2046FFF7B0FB054625B94B
:103D60004846FFF719FD0020F2E743463A46314640
:103D70004846CDE902ABCDE90054FEF71BFC4846AE
:103D8000E6E710B50446204600F01CF910BD00001F
:103D900010E00020084908604FF01900FFF7F1FF1C
:103DA000FDF7CEFA01204FF04021C1F87408192028
:103DB000FFF7E7FFEDE70000744800400CE000204B
:103DC00006490860FEF754FE01204FF04021C1F87B
:103DD00070080A20FFF7D5FFF1E7000070480040A7
:103DE00070B512480468FCF777FA05462046FFF7DD
:103DF000D1FD042084F8340004F14C0000F033FAC3
:103E00002046FFF73BFD012805D1A06F18B92046D9
:103E1000FFF7ECFC04E004F114010548FFF70EFB8A
:103E20002846FCF75DFAFFF739FD70BDA8020020B7
:103E3000B402002007E00448006810B1024800689E
:103E4000804700F003F8F6E7D801002070B541E0A4
:103E500000BFFCF741FA0646FFF77EFA20B10020CA
:103E600000BF0028FDD000BF3046FCF739FA00BF84
:103E7000FCF732FA05461B48FFF7F5FAE0B9194896
:103E8000016814200C1A04F11400D0E900215160DB
:103E9000D0E9001211604060006000BFA06F10B157
:103EA0002046A16F88472046FFF7E8FC012807D18C
:103EB0002846FCF715FA70BD2846FCF711FAFAE718
:103EC0002846FCF70DFAA06AFFF762F92046FFF7D3
:103ED00063FC00BF0348FFF7C6FA0028B8D000BF54
:103EE000E9E70000B40200201FB520231F2259017A
:103EF00006488DE80F000023054A06A1074800F098
:103F00000FF8064800F084F81FBD0000B01F002025
:103F1000353E00007469646C65000000301F0020AD
:103F20002DE9FF5F04460D46174698460EAE96E80B
:103F3000400E24B9002000BF0028FDD000BF26B9E4
:103F4000002000BF0028FDD000BF2A4600212046E7
:103F5000FFF76AFC43463A46294620468DE8400E64
:103F6000FEF728FB04B0BDE8F09F70B5044624B905
:103F7000002000BF0028FDD000BF00BF00BF94F8A4
:103F80003400022804D000BF00BF4FF0FF3070BDE6
:103F9000FCF7A2F9054604F11400FFF785FA04F1D5
:103FA0004C0000F023FA2846FCF79AF92046FFF768
:103FB000C5FC0020EBE700000148006870470000E6
:103FC000A802002031B5FCF787F905460F480468C0
:103FD00024B9002000BF0028FDD000BF204600F01B
:103FE00043F86A46002104F14C0000F019F904F18D
:103FF0004C0000F06BF92846FCF772F9FFF74EFC15
:10400000206B801C00D12063002038BDA802002056
:1040100010B5044624B9002000BF0028FDD000BF21
:1040200094F8340020B1002000BF0028FDD000BF6C
:1040300004F13404A078607061784FF0010000FA58
:1040400001F06060A4F1340400BF00BF4FF0020033
:1040500084F834002046FFF788FFFFF7ADFF08B172
:10406000FFF71CFC002010BD70B5044624B90020E9
:1040700000BF0028FDD000BF00BF00BF94F834008F
:10408000012804D000BF00BF4FF0FF3070BDFCF727
:1040900023F90546022084F834002046FFF77AFC15
:1040A0002846FCF71DF90020F0E770B505462C46C0
:1040B00024B9002000BF0028FDD000BF94F83400D0
:1040C000022804D0002000BF0028FDD000BF6FF000
:1040D0000100206304F11400FFF7E6F92046FFF722
:1040E0002DFCFFF7DBFB70BD70B5FCF7F5F805465E
:1040F0001348046894F8340001281CD1D4E9051051
:10410000814218D004F11400FFF7CEF994F835205D
:104110000C4B03EBC20004F11401426811604268C9
:104120004A604160086000BF2846FCF7D9F8FFF7F5
:10413000B5FB002070BD2846FCF7D2F80020F9E757
:10414000A8020020D023002001480068704700002A
:10415000D401002010B50A480068401C08490860D6
:10416000FFF72AFF0446A06C401EA064A06C18B99B
:10417000606CA064FFF7B8FF00F004F810BD000009
:10418000D401002070B500BF00BFFFF7DDFF05467A
:10419000FCF7A2F8064633E01F48016814200C1A09
:1041A000A06A281A6FF00041884228D200BF1B483D
:1041B000006818B1204619490968884700BF2046A1
:1041C000FEF76DFAD4E907108847FFF7BDFF0546F3
:1041D00000BF00BF607A10F0020F0BD0607A10F0C1
:1041E000010F07D0607A20F001006072204600F0D5
:1041F0006DF805E0607A20F00100607200E004E0F4
:104200000548FFF740F90028C6D000BF3046FCF74C
:1042100067F800BF00BF70BDC4020020CC020020C0
:1042200010B5034623B9002000BF0028FDD000BF11
:1042300049B1012904D0022908D0032910D10AE08C
:10424000586A10600CE01068586209E0587A20F053
:104250000200587204E0587A40F00200587200BF21
:1042600000BF002010BD70B5044624B9002000BF77
:104270000028FDD000BFFCF72FF805462046FEF7CA
:104280000EFA2846FCF72CF82046FFF7AFFA00207C
:1042900070BD2DE9F84304460D4616461F46DDE97C
:1042A000088924B9002000BF0028FDD000BF2A469D
:1042B00008212046FFF7B8FA43463A4631462046E1
:1042C000CDF80090FEF7CAF9BDE8F8832DE9F84370
:1042D000054625B9002000BF0028FDD000BF687A40
:1042E00010F0010F03D04FF0FF30BDE8F88300BF9E
:1042F0003B48006818B1284639490968884700BF1B
:104300006FF00041686A884204D3002000BF002893
:10431000FDD000BFFFF718FF696A0844A862FBF7E9
:10432000DBFF80462F4E009600242AE019E05DF85E
:1043300024201168142202EBC402881A826AAB6A34
:10434000D21A00D108E0826AAB6AD21A6FF0004339
:104350009A4200D20CE000BF5DF8240000684DF8DE
:1043600024005DF8240006EBC40149688842DED1D0
:1043700000BF2CB15DF824000830611C4DF821000D
:10438000641C012CD2DB18480068401C16490860E8
:104390000846076805F114010098FFF756F8022453
:1043A00012E017F0030F0CD1C4F1010305F1140260
:1043B00002EBC301C4F101025DF82200FFF745F8EA
:1043C00000E003E0BF08641C012CEADD00BF687A4E
:1043D00040F0010068724046FBF782FF002084E74E
:1043E0009C020020C4020020C002002070B50446D8
:1043F00024B9002000BF0028FDD000BF607A10F073
:10440000010F02D14FF0FF3070BD00BF0B480068B4
:1044100018B1204609490968884700BFFBF75CFFCF
:1044200005462046FEF73BF92846FBF759FF607A20
:1044300020F0010060720020E6E70000A0020020EA
:1044400010B5FEF723FFFFF799FBFFF75FFCFFF7BF
:104450001BFCFFF75DFC08490848FFF7ABFBFFF7C3
:1044600015FCFEF773FEFEF71DFEFFF75FFCFFF77E
:104470003BFDFFF733FC10BDCF450020D02D0020C1
:104480000020704730B502460B46FF24A44609E0E1
:1044900012F8010B80EA0C010648405C80EA040C2B
:1044A0000548445C1800A3F10105ABB2F0D14CEA19
:1044B000042030BD744800007449000070B5044603
:1044C0000D463CB101200D49086001460C48FDF73E
:1044D00088FB07E00020094908604FF00101084807
:1044E000FDF77BFB25B102210548FDF77AFB03E0D0
:1044F00002210348FDF771FB70BD000070480040C9
:104500000030074010B50648FDF725FB0448FDF7CD
:10451000A3FA0020034908700349086010BD000099
:1045200000000540E0000020E400002010B501205C
:104530000F49087000200F49086044F620624FF0D0
:1045400000610D48FDF7D6FA0B48FDF789FA032103
:104550002020FCF7E1FE2020FCF7D2FE00BF064839
:10456000006840F080400449086000BF10BD0000B2
:10457000E0000020E400002000000540002070471B
:1045800001460020054A127832B1054A12780A70B5
:104590000022024B1A70012070470000D900002051
:1045A000D800002000200249087001207047000058
:1045B000D900002001460120024A10700248017013
:1045C00001207047D9000020D80000200146024891
:1045D0000068087001207047003007402DE9F04165
:1045E00005460C4616461F462448FCF73BFC0022B5
:1045F0004FF040712148FCF7AFFC4FF08040806CD9
:1046000040F408104FF080418864012205211C48C5
:10461000FCF7D3FD002204211948FCF7CEFD21460A
:104620001848FDF7E3FA1748FDF7D2FAFCF78EFDBC
:1046300001211448FDF7D5FA00BF6B20002805DAE8
:104640000220000110490722885404E002200001E2
:104650000E496B22885400BF00BF0B210120884007
:104660006B2149094FF0E02202EB8101C1F8000102
:1046700000BFFCF76DFD0120BDE8F081133D8057C0
:10468000C04000400030074018ED00E000E400E0CA
:1046900001460248016001207047000000300740D9
:1046A00010B52DED028B0446002008EE100A1148CB
:1046B00004801148FCF7D6FB00224FF400710E482D
:1046C000FCF74AFC44F620624FF000610B48FDF70E
:1046D00011FA0A48FDF7C4F903212020FCF71CFE5B
:1046E0002020FCF70DFE0548FDF735FA0120BDEC52
:1046F000028B10BDE80000200200805E0000054033
:1047000038B500246846FFF761FF1C48007830B1D7
:1047100001280AD0022819D003282BD102E0FFF784
:1047200005FF27E0FFF702FF24E00020144908807E
:104730009DF800200888411C114B198011490A542A
:1047400002200E490870FFF7F1FE13E00C480088C4
:10475000FF2809DC9DF8002009490888411C084B06
:10476000198008490A5402E0032004490870FFF741
:10477000DDFE00BF00BF204638BD0000090100205B
:1047800012010020101E002010B500240D480078F2
:1047900020B1022807D003280BD109E00020FFF741
:1047A00009FF044606E00120FFF704FF044601E08C
:1047B00000E000BF00BFFFF7A5FE0120014908701F
:1047C000204610BD0901002010B5002416480078CD
:1047D00010B1012824D104E000210120FFF76EFE72
:1047E0001EE01248008878B1114909680878FFF77F
:1047F0004FFF0F480068401C0D4908600B480088B7
:10480000401E0A4908800AE00320FFF7D3FE044651
:1048100000210120FFF752FE00200349087000BF6D
:1048200000BF204610BD000008010020100100203C
:104830000C010020001BB7000000000000805101A7
:1048400000805101001BB7000000000000805101F2
:1048500000805101001BB700008000000000000034
:104860000000000000000000102700000000000011
:104870000080510100C1814001C0804101C08041E0
:1048800000C1814001C0804100C1814000C1814020
:1048900001C0804101C0804100C1814000C1814010
:1048A00001C0804100C1814001C0804101C0804100
:1048B00000C1814001C0804100C1814000C18140F0
:1048C00001C0804100C1814001C0804101C08041E0
:1048D00000C1814000C1814001C0804101C08041D0
:1048E00000C1814001C0804100C1814000C18140C0
:1048F00001C0804101C0804100C1814000C18140B0
:1049000001C0804100C1814001C0804101C080419F
:1049100000C1814000C1814001C0804101C080418F
:1049200000C1814001C0804100C1814000C181407F
:1049300001C0804100C1814001C0804101C080416F
:1049400000C1814001C0804100C1814000C181405F
:1049500001C0804101C0804100C1814000C181404F
:1049600001C0804100C1814001C0804101C080413F
:1049700000C1814000C0C101C30302C2C60607C70F
:1049800005C5C404CC0C0DCD0FCFCE0E0ACACB0B7F
:10499000C90908C8D81819D91BDBDA1A1EDEDF1FAF
:1049A000DD1D1CDC14D4D515D71716D6D21213D39F
:1049B00011D1D010F03031F133F3F23236F6F7374F
:1049C000F53534F43CFCFD3DFF3F3EFEFA3A3BFB3F
:1049D00039F9F83828E8E929EB2B2AEAEE2E2FEFEF
:1049E0002DEDEC2CE42425E527E7E62622E2E3235F
:1049F000E12120E0A06061A163A3A26266A6A7678F
:104A0000A56564A46CACAD6DAF6F6EAEAA6A6BABFE
:104A100069A9A86878B8B979BB7B7ABABE7E7FBF2E
:104A20007DBDBC7CB47475B577B7B67672B2B3731E
:104A3000B17170B0509091519353529296565797CE
:104A4000559594549C5C5D9D5F9F9E5E5A9A9B5BBE
:104A500099595898884849894B8B8A4A4E8E8F4F6E
:104A60008D4D4C8C448485458747468682424383DE
:104A70004181804000002110422063308440A550D5
:104A8000C660E770088129914AA16BB18CC1ADD194
:104A9000CEE1EFF13112100273325222B55294423C
:104AA000F772D662399318837BB35AA3BDD39CC3E4
:104AB000FFF3DEE36224433420040114E664C77488
:104AC000A44485546AA54BB528850995EEE5CFF534
:104AD000ACC58DD55336722611163006D776F666DC
:104AE0009556B4465BB77AA719973887DFF7FEE784
:104AF0009DD7BCC7C448E5588668A77840086118A8
:104B000002282338CCC9EDD98EE9AFF948896999D3
:104B10000AA92BB9F55AD44AB77A966A711A500A7B
:104B2000333A122AFDDBDCCBBFFB9EEB799B588B23
:104B30003BBB1AABA66C877CE44CC55C222C033CC7
:104B4000600C411CAEED8FFDECCDCDDD2AAD0BBD73
:104B5000688D499D977EB66ED55EF44E133E322E1B
:104B6000511E700E9FFFBEEFDDDFFCCF1BBF3AAFC3
:104B7000599F788F8891A981CAB1EBA10CD12DC121
:104B80004EF16FE18010A100C230E32004502540B7
:104B900046706760B9839893FBA3DAB33DC31CD317
:104BA0007FE35EF3B1029012F322D2323542145207
:104BB00077625672EAB5CBA5A89589856EF54FE563
:104BC0002CD50DC5E234C324A01481046674476457
:104BD00024540544DBA7FAB79987B8975FE77EF7B7
:104BE0001DC73CD7D326F2369106B01657667676A7
:104BF000154634564CD96DC90EF92FE9C899E98983
:104C00008AB9ABA94458654806782768C018E108F6
:104C10008238A3287DCB5CDB3FEB1EFBF98BD89B56
:104C2000BBAB9ABB754A545A376A167AF10AD01A46
:104C3000B32A923A2EFD0FED6CDD4DCDAABD8BADA2
:104C4000E89DC98D267C076C645C454CA23C832C96
:104C5000E01CC10C1FEF3EFF5DCF7CDF9BAFBABFF6
:104C6000D98FF89F176E367E554E745E932EB23EE6
:104C7000D10EF01E0000010002000100030001003F
:104C80000200010004000100020001000300010015
:104C90000200010005000100020001000300010004
:104CA00002000100040001000200010003000100F5
:104CB00002000100060001000200010003000100E3
:104CC00002000100040001000200010003000100D5
:104CD00002000100050001000200010003000100C4
:104CE00002000100040001000200010003000100B5
:104CF00002000100070001000200010003000100A2
:104D00000200010004000100020001000300010094
:104D10000200010005000100020001000300010083
:104D20000200010004000100020001000300010074
:104D30000200010006000100020001000300010062
:104D40000200010004000100020001000300010054
:104D50000200010005000100020001000300010043
:104D60000200010004000100020001000300010034
:104D70000200010030313233343536373839616260
:104D80006364656600303132333435363738394143
:104D90004243444546000000B84D0000000000209A
:104DA000E002000074090000784E0000E0020020DC
:104DB000F04A0000F01C000001101008514331328D
:104DC000383634A00DB5E7D1B9203A3030302E3026
:104DD00030A00DB5E7C1F7203A3131312E3131A87D
:104DE0000DB9A6C2CA203A3232322E32322C0B1002
:104DF000C4DC16D145805101161B1BB70C610B108A
:104E00001027240146DA01020122320232041A0577
:104E100094321123252932031AC51032061A4D1077
:104E2000321703BE51281304022A200432803201B3
:104E30001A140C2904322032021A240C390431329B
:104E4000031A340C2904292032041A440C29043290
:104E50003032051A540C2904323432061A640C29F3
:104E600004323832071A740C2904324032081A848A
:084E70000C290402532C000080
:04000005000002797C
:00000001FF
